:020000040800F2
:100000009822002045010008952D0008F7210008DE
:10001000E52A00086F0700084936000800000000C4
:100020000000000000000000000000004D3000084B
:100030007107000800000000492E00080131000887
:100040005F0100085F0100085F0100085F01000810
:100050005F0100085F0100085F0100085F01000800
:100060005F0100085F0100085F0100085F010008F0
:100070005F0100085F0100085F0100085F010008E0
:100080005F0100085F0100085F0100085F010008D0
:100090005F0100085F0100085F0100085F010008C0
:1000A0005F0100085F0100085F0100085F010008B0
:1000B00065310008713100085F0100085F01000828
:1000C0005F0100085F0100085F0100085F01000890
:1000D0005F010008313600083D3600085F01000866
:1000E0005F0100085F0100085F0100085F01000870
:1000F0005F0100085F0100085F0100085F01000860
:100100005F0100085F0100087D3100085F01000801
:100110005F0100085F0100085F0100085F0100083F
:100120005F0100085F0100085F0100085F0100082F
:10013000DFF80CD000F0DEFA00480047353A00083E
:10014000982200200648804706480047FEE7FEE761
:10015000FEE7FEE7FEE7FEE7FEE7FEE7FEE7FEE777
:100160006331000831010008202A04DB203A21FA1B
:1001700002F00021704721FA02F3D040C2F12002C0
:100180009140084319467047D2B201E000F8012BB4
:10019000491EFBD270470022F6E710B513460A4607
:1001A00004461946FFF7F0FF204610BD421E12F824
:1001B000013F002BFBD111F8013B02F8013B002B62
:1001C000F9D17047421C10F8011B0029FBD1801A9D
:1001D0007047F0B480EA0102D40F4200B2EB410F45
:1001E00002D20246084611464A0042D0C30DDDB293
:1001F000C1F3C752AD1A202D35DAC1F3160141F40F
:10020000000204B15242C5F1200602FA06F12A4169
:100210001044B3EBD05F23D0C4B1012DA0EBC35089
:1002200009DCF0BC4FF0004202EAC352DBB200F539
:10023000000000F0D4B9400000F1807000EBC35022
:10024000A0F1807040EAD170490009E0490841EA14
:10025000C071A0EBC35000F50000400800EBC35094
:10026000F0BC00F0B3B96142012202EB4101001B76
:10027000F6E7F0BC704781F00041AAE780F000404B
:10028000A7E780EA010210B502F00043400022D047
:100290004A001FD0010E01EB1261C0F35600C2F3F9
:1002A000560240F4000042F40002A0FB02200004C9
:1002B0007F39140400D0401C50EA124001D44000A1
:1002C000491EC2B20C0604EBD010401C4008802A24
:1002D00002D003E0002010BD20F00100002900DA68
:1002E0000020184310BD30B480EA010202F000453E
:1002F00030F0004221F0004013D090B1C30DD40D76
:10030000C2F31601C0F31600E41A41F4000140F4F0
:1003100000027D34914201D3641C00E04900002CAE
:1003200002DA30BC002070474FF4000000239142F5
:1003300001D3891A034340084FEA4101F7D151B173
:10034000914202D14FF0004105E002D24FF001018D
:1003500001E06FF0010103EBC450284430BC00F011
:1003600035B92DE9FE4F804681EA0300C00F0C46E7
:10037000009021F0004123F00045B8EB0200A941B4
:1003800005D24046214690461C460B46024623F0C5
:100390000040104347D0270DC7F30A00C3F30A51AA
:1003A0000290401A019040286BDAC3F3130040F426
:1003B000801B0098924620B10023D2EB030A63EB26
:1003C0000B0B01985946C0F14002504600F0DDF891
:1003D00006460D4650465946019A00F0E5F810EBE6
:1003E00008006141002487EA115284EAE7731A4346
:1003F00040D0009A62B3019A012A4FEA075215DCF5
:10040000001B61EB02014FF0004202EA0752CDE906
:100410000042001C41F5801132462B4600F01CF9C9
:1004200003B0BDE8F08F40462146F9E7001B61EBC1
:100430000201001C41F5801300185B412018A2F551
:10044000001747EB030140EAD570B6196D4111E082
:100450006D084FEA360645EAC0754FEA0752001BA1
:1004600061EB0201001C41F5801149084FEA3000A0
:100470000019514132462B4603B0BDE8F04F00F061
:10048000DCB80098012240000023D0EB020263EBAD
:10049000E073009821464FEAE074B8EB000061EB8E
:1004A0000401E9E783F000435BE781F0004158E78E
:1004B00070B521F0004303430CD0C1F30A5500246A
:1004C000D5EB040564EB0403D617AD1AB34102DB88
:1004D0000020014670BD201841EB025170BDC10FD4
:1004E00080EAE0700844CA079623002100F077B83C
:1004F00096230022114600F072B800F0004220F06E
:100500000040C10DC0F3160040F400007F2901DA5D
:1005100000207047962903DCC1F19601C84001E034
:1005200096398840002AF4D04042704700F00042DB
:1005300030F000400AD0C10D01F56071C0F3160023
:1005400042EA0151C20840071143704700200146AA
:10055000704701F0004330B421F0004150EA01023D
:1005600006D00A0DA2F56072C1F31301002A02DC65
:1005700030BC00207047440F44EAC104C100E018B9
:1005800030BC00EBC25000F021B8202A04DB203A36
:1005900000FA02F1002070479140C2F1200320FAD6
:1005A00003F3194390407047202A06DBCB17203A0B
:1005B00041FA02F043EAE07306E041FA02F3D04068
:1005C000C2F1200291400843194670470029A8BF94
:1005D0007047401C490008BF20F00100704710B46C
:1005E000B0FA80FC00FA0CF050EA010404BF10BC21
:1005F000704749B1CCF1200421FA04F411FA0CF14E
:1006000018BF012121430843A3EB0C01CB1D4FEA86
:1006100000614FEA102042BF002010BC704700EB81
:10062000C35010440029A4BF10BC7047401C4900AF
:1006300008BF20F0010010BC704710B5141E73F104
:10064000000408DA401C41F1000192185B411A4392
:1006500001D120F0010010BD2DE9F04D92469B46DE
:1006600011B1B1FA81F202E0B0FA80F22032904684
:10067000FFF78BFF04460F4640EA0A0041EA0B01F0
:1006800053465A46084313D0114653EA010019D085
:10069000C8F140025046FFF767FD05460E4650463A
:1006A00059464246FFF771FF084305D0012004E098
:1006B00020463946BDE8F08D0020054346EAE07645
:1006C0002C4337430A986305E40AA0EB0800002294
:1006D000FD0A44EA47540A3002D500200146E9E702
:1006E000010510196941DDE9084500196941BDE8B6
:1006F000F04DA2E7064C074D06E0E06840F001032C
:1007000094E8070098471034AC42F6D3FFF714FD85
:100710005C5B00087C5B000870B58C1810F8015B0E
:1007200015F0070301D110F8013B2A1106D110F88A
:10073000012B03E010F8016B01F8016B5B1EF9D18E
:100740002B0705D40023521E0DD401F8013BFAE714
:1007500010F8013BCB1A921C03E013F8015B01F87F
:10076000015B521EF9D5A142D8D3002070BDFEE72F
:100770007047000010B50B4C4FF400716088884240
:1007800004D3002060800848FFF705FD0649608813
:100790000144401C6080BDE810400122034801F084
:1007A000BDBC0000CC010020601C0020E002002045
:1007B00010B53C210D4800F0AFFF0C480168CA6835
:1007C00042F00102CA60006842F2107141620849B9
:1007D0000020086048608860C86048618861C8611E
:1007E0000862486288620863C86210BD98020020EF
:1007F000601E002072B6FEE7044B0022DA61044A54
:10080000136943F0010313610180704770030020F6
:100810000020024014480022C168CB06134904D5C9
:10082000CA6942F00202CA611022C3685B0705D59B
:10083000CB6943F00103CB6142F00402C369DB07DB
:1008400007D0CB6943F00403CB61C16921F00101FA
:10085000C161A2F58071013901D0C2607047C169E0
:1008600021F00101C16170470020024070030020A7
:1008700070B5054600F06AFA0646114C09E0681C9E
:1008800007D025B100F062FA801BA84201D90320ED
:1008900070BDE068C007F2D1E068800601D5202075
:1008A000E060E068C00605D4E069C00702D1E068F6
:1008B000400703D5FFF7AEFF012070BD002070BDDB
:1008C00000200240064A0021D16106490A6942F02F
:1008D00002020A614861086940F0400008617047FF
:1008E000400C002000200240704710B590F8211005
:1008F0000022022905D00421816380F820200120F4
:1009000010BD01680B6823F00E030B6001680B68D3
:1009100023F001030B6090F84030C46B012101FA11
:1009200003F3636080F8211080F82020104610BD8A
:100930002DE9F05F90F821100024022903D0042152
:100940008163012485E001680A6822F00E020A60D2
:1009500001680A6822F001020A603F4E3E4FB2155C
:10096000DFF8F4C0DFF8F090DFF8ECA0DFF8E8B0D3
:10097000DFF8E4E00168783F13011502ACF1640C84
:10098000A9F15009AAF13C0AABF1280BAEF1140E03
:100990004FF48018B14227D9B9420ED0614512D028
:1009A00049451DD0514518D0594518D0714501D140
:1009B000424615E0294EB14201D1012210E0274EF6
:1009C0001436B14201D110220AE0244E2836B14239
:1009D00006D0224A3C32914201D11A4600E02A4612
:1009E0001E49091F0A602BE0B94213D0614517D098
:1009F000494522D051451DD059451DD0714501D1E1
:100A000042461AE0B14202D14FF0807215E0134E17
:100A1000B14201D1012210E0104E1436B14201D191
:100A200010220AE00D4E2836B14206D00B4A3C3265
:100A3000914201D11A4600E02A46074980394A60AE
:100A4000012180F82110002180F82010416B01B1B4
:100A500088472046BDE8F09F80000240080402401D
:100A600070B5044600F072F90546601C02D00448D7
:100A70000078044400F06AF9401BA042FAD370BD2C
:100A8000100000200348016941F08001016100204D
:100A900070470000002002402DE9F05F07461C4827
:100AA00088460024017E15461E46012909D00121F1
:100AB000814601764CF2503A5046FFF7D9FE18B104
:100AC00022E00220BDE8F09F012F02D0022F00D0CB
:100AD0000427D346DFF83CA0220128463146FFF721
:100AE00043FB81B208EB4400FFF786FE5846FFF750
:100AF000BFFEDAF8102022F00102CAF8102018B95F
:100B0000641CE4B2BC42E7D3002289F81820D9E77C
:100B10007003002000200240064900200A691206E6
:100B200007D5054A4A60054A4A600969090600D5A1
:100B3000012070470020024023016745AB89EFCDBB
:100B40002DE9F84FDFF8C8910024A9F1040B2346E2
:100B50000F2709F1040AABF1040ED1E00125A540ED
:100B600006EA0502AA4276D1DFF8A8C14E68A6EBD4
:100B70000C0866452BD00DDC032E34D005DC36B3D3
:100B8000012E19D0022E2FD11BE0112E16D0122EBD
:100B90002AD119E0B8F5881F19D006DCB8F5803FD6
:100BA00015D0B8F5801F1FD111E0B8F5001F0ED089
:100BB000B8F5041F18D10AE0CB6815E0CB681B1DFF
:100BC00012E0CB6808330FE0CB680C330CE08B6885
:100BD0002BB1012B4FF0080303D0456104E004233F
:100BE00002E0056100E00023FF2A01D8064601E08B
:100BF00000F104064FEA840501D9A5F12005D6F8D5
:100C0000008007FA05FC28EA0C0803FA05F548EA13
:100C10000508C6F800804D68ED0070D53E4DAE6900
:100C200046F00106AE61AD6924F0030605F001054A
:100C300000953A4D06EB050CDCF80850A607360F78
:100C400007FA06F825EA0805DFF8D480404503D105
:100C50004FF0000825E052E0DFF8C880404502D19F
:100C60004FF001081DE0DFF8C080404502D14FF091
:100C7000020816E0DFF8B480404502D14FF00308C7
:100C80000FE0DFF8AC80404502D14FF0040808E0E7
:100C9000DFF8A080404502D14FF0050801E04FF099
:100CA000060808FA06F848EA0508CCF808804D68F6
:100CB000D9F80060ED024D4601D5164300E0964399
:100CC0002E604D68DAF80060AD02554601D5164336
:100CD00000E096432E604D68DBF80060AD035D4692
:100CE00001D5164300E096432E604D68DEF80060A3
:100CF000ED03754601D5164300E096432E60641C53
:100D00000A681646E2407FF429AFBDE8F88F00007C
:100D100008040140000011100010024000000140D2
:100D200000080140000C0140001001400014014087
:100D300000180140001C01408068084000D00120DC
:100D400070470AB1016170470904FBE701488068F8
:100D500070470000100000200248816802781144AA
:100D60008160704710000020074810B5016841F00D
:100D700010010160032000F075F80F2000F006F864
:100D800000F024F8002010BD0020024070B50D4D89
:100D900004464FF47A712878B1FBF0F00A490968EB
:100DA000B1FBF0F000F0DCFA48B9102C07D20022B9
:100DB0002146501E00F036F800206C6070BD012006
:100DC00070BD0000100000201C0000200C4808B579
:100DD000816941F001018161816901F001010091A6
:100DE000C16941F08051C161C06900F0805000903C
:100DF0000448416821F0E06141F00071416008BDA4
:100E00000010024000000140002809DB00F01F0232
:100E1000012191404009800000F1E020C0F800115C
:100E200070470000F0B40E4B1B680C46C3F302235E
:100E3000C3F10705042D00D90425191D072901D286
:100E4000002300E0DB1E012606FA05F1491E2140C1
:100E500099409E40761E16403143F0BC02F00CBC17
:100E60000CED00E0064900F0070208684FF6FF03AA
:100E7000184040EA0220034A10430860704700000F
:100E80000CED00E00000FA052DE9F0470F460500E3
:100E900061D0434E306800F00700B84209D2306894
:100EA00020F0070038433060306800F00700B84297
:100EB00051D128683B4C810712D5400703D56068A3
:100EC00040F4E06060602878000703D5606840F473
:100ED000605060606068A96820F0F00008436060BE
:100EE0002878C00728D06868012810D02168022817
:100EF00010D0890700292EDA616821F0030101432F
:100F00006160FFF723FF804641F288390DE02168D8
:100F10008903EFE78901EDE7FFF718FFA0EB080170
:100F2000494502D90320BDE8F0876068696800F090
:100F30000C00B0EB810FEFD1306800F00700B84231
:100F40000BD9306820F0070038433060306800F07B
:100F50000700B84201D00120E5E72878400705D511
:100F60006068E96820F4E060084360602878000762
:100F700006D56068296920F4605040EAC1006060CD
:100F800000F038F86168084AC1F30311515CC840A9
:100F90000649086006480068FFF7F8FE0020C2E72F
:100FA0000020024000100240AA3C00081C00002063
:100FB000140000200448054900684968044AC1F348
:100FC0000221515CC84070471C0000200010024004
:100FD000BA3C00080448054900684968044AC1F35E
:100FE000C221515CC84070471C0000200010024024
:100FF000BA3C00080E4A51680E4801F00C03042B5D
:1010000011D0082B0FD10C48C1F38343C903C05C36
:101010000AD55168084AC1F34041921E515C054A05
:101020005043B0FBF1F0704704494843704700005B
:101030000010024000127A009A3C000800093D00AE
:101040002DE9F84F040070D02078C04DC00749D07A
:101050006868C0F38100012807D06868C0F3810088
:10106000022809D16868C00306D52868800339D5ED
:1010700060680028E7D035E06068B0F5803F0BD0AD
:1010800010B1B0F5A02F11D0286820F4803028606E
:10109000286820F4802002E0286840F4803028602E
:1010A000606890B1FFF752FE06460AE0286840F4F7
:1010B00080202860F0E700BFFFF748FE801B64280F
:1010C00073D828688003F7D50CE0FFF73FFE06468B
:1010D00005E000BFFFF73AFE801B6428F0D82868BF
:1010E0008003F7D420789A4E80074FF001094FF023
:1010F000000839D5686810F00C0F07D06868C0F395
:101100008100022809D16868C00306D428688007D6
:1011100014D52069012808D110E02069B0B1C6F8C3
:101120000090FFF713FE074605E00AE1FFF70EFE09
:10113000C01B0228C4D828688007F7D528686169D1
:1011400020F0F80040EAC10028600DE0C6F80080F9
:10115000FFF7FCFD074604E0FFF7F8FDC01B02287F
:1011600023D828688007F7D4207800072CD5794841
:10117000A169D9B1C0F80090FFF7E8FD074604E087
:10118000FFF7E4FDC01B02280FD8686A8007F7D577
:1011900071484FF4FA510068B0FBF1F0009000BFC5
:1011A0000098411E0091FAD20EE080E0C0F8008065
:1011B000FFF7CCFD074604E0FFF7C8FDC01B02287F
:1011C00075D8686A8007F7D42078400760D5E86949
:1011D0000027C00008D4E86940F08050E861E86961
:1011E000012700F0805000905C480168C90513D4C5
:1011F0000168834641F480710160FFF7A7FD8246D4
:1012000006E000BFFFF7A2FDA0EB0A0064284ED85D
:10121000DBF80000C005F5D5E06801280AD008B168
:10122000052813D0286A20F001002862286A20F0DF
:10123000040002E0286A40F001002862E06841F200
:10124000883B98B1FFF782FD82460BE0286A40F0A8
:1012500004002862EEE700BFFFF778FDA0EB0A016B
:1012600059455AD8286A8007F6D50CE0FFF76EFD7D
:10127000824605E0FFF76AFDA0EB0A0159454CD80C
:10128000286A8007F6D41FB1E86920F08050E86131
:10129000E06988B36968C1F38101022944D002285A
:1012A000C6F8608004D0FFF751FD044638E034E012
:1012B000FFF74CFD074604E0FFF748FDC01B02287E
:1012C0002BD828688001F7D4206AB0F5803F05D17B
:1012D0006868A16820F4003008436860D4E9080118
:1012E0000843696821F4741108436860C6F8609087
:1012F000FFF72CFD044606E025E000BFFFF726FDC2
:10130000001B022809D828688001F7D51BE000BF20
:10131000FFF71CFD001B022802D90320BDE8F88F4F
:1013200028688001F4D40EE00128F7D06868226AAA
:1013300000F48031914204D1616A00F47010884257
:1013400001D00120EAE70020E8E700000010024099
:1013500000004242800442421C0000200070004015
:1013600010B5401EB0F1807F01D3012010BD4FF0B9
:10137000E02460610F21601702F07EF90020A06177
:1013800007202061002010BD7047704770B590F8AD
:101390003C20012A2CD0012480F83C40022280F815
:1013A0003D2003685A689D6822F070060A6832433F
:1013B0005A60104B02689A420ED00F4B9A420BD0E3
:1013C000B2F1804F08D00D4B9A4205D00C4B9A4297
:1013D00002D00C4B9A4204D1496825F0800319438E
:1013E000916080F83D40002180F83C10084670BDB7
:1013F000022070BD002C0140003401400004004078
:1014000000080040000C004010B5040003D094F820
:101410003D0010B107E0012010BD002084F83C0021
:10142000204600F01FF8022084F83D00211D2068AE
:1014300001F0AAFE012084F8460084F83E0084F8FA
:101440003F0084F8400084F8410084F8420084F8AA
:10145000430084F8440084F8450084F83D000020EF
:1014600010BD000008B501681448B1F1804F14D0D8
:10147000134A914220D1C16941F00201C161C069A2
:10148000002200F00200009011461D20FFF7CAFC68
:101490001D20BDE80840FFF7B7BCC16941F001015C
:1014A000C161C069002200F00100009001211C20F0
:1014B000FFF7B8FC1C20ECE708BD0000001002405C
:1014C0000004004090F83D10012901D00120704730
:1014D000022180F83D100168CA6842F00102CA602A
:1014E00000680E4988420ED00D4988420BD0B0F1F9
:1014F000804F08D00B49884205D00B49884202D062
:101500000A49884204D1816801F00701062903D005
:10151000016841F00101016000207047002C01408A
:10152000003401400004004000080040000C00406E
:1015300070B5044690F83C000025012817D001261C
:1015400084F83C60022084F83D002068826822F024
:10155000770222F47F4282600868502838D00DDC80
:1015600020284FD005DC90B3102811D14AE002208A
:1015700070BD302846D040280AD13BE060282FD0EB
:1015800070280DD0B0F5805F03D0B0F5005F12D0A9
:10159000012584F83D60002084F83C00284670BD99
:1015A000CB68D1E90121206801F041FE2068816803
:1015B00041F0770109E0CB68D1E90121206801F011
:1015C00036FE2068816841F480418160E1E719E0DE
:1015D000CA684968206801F0FFFE5021206806E0D3
:1015E000CA684968206801F008FF6021206801F09E
:1015F00028FECEE7CA684968206801F0EDFE402168
:101600002068F4E7226801461046F0E72DE9F04132
:101610000D46040003D094F83D0018B108E0012005
:10162000BDE8F081002084F83C00204600F040F83E
:10163000022084F83D002068816844F2070291434B
:101640008160211D206801F09FFD226890689169EA
:10165000166A2B68AF69034340F20330814341EAC5
:101660000721A868EF6908434FF6FC418843E96801
:1016700040EA0720014328692F6A000140EA073049
:10168000084369686D6926F0220646EA0515294374
:1016900093602268906154F8460B0162012004F8BF
:1016A0001F09E0752076E0762077A0750020B7E767
:1016B00000B585B00021009101910291039100686D
:1016C0001249884220D11248C16941F00801C16124
:1016D000C16901F008010491816941F0040181614F
:1016E0008069694600F00400049003200090012006
:1016F00002900848FFF724FA002211463220FFF733
:1017000091FB3220FFF780FB05B000BD000C0040CC
:10171000001002400008014070B590F83E60044699
:1017200090F83F5090F8423090F84320022021B1C9
:1017300004290ED0012E1BD114E0012E18D1012B4B
:1017400016D184F83E0084F842000122002120686E
:1017500020E0012D0CD1012A0AD184F83F0084F841
:10176000430014E0012D03D1012B01D1012A01D046
:10177000012070BD84F83E0084F83F0084F84200E8
:1017800084F8430001220021206801F043FD01227A
:101790000421206801F03EFD2068016841F001014C
:1017A0000160002070BD704770B504460068016993
:1017B0004FF00005C943890715D4C168C94389079B
:1017C00011D4E91E0161012020772068806980071B
:1017D000204602D0FFF7E7FF04E000F0F3F82046D0
:1017E00000F085F9257720680169C943490717D4B6
:1017F000C168C943490713D46FF004010161022095
:1018000020772068806910F4407F204602D0FFF7DF
:10181000CAFF04E000F0D6F8204600F068F925770A
:1018200020680169C943090716D4C168C94309077B
:1018300012D46FF008010161042020772068C0698C
:101840008007204602D0FFF7AEFF04E000F0BAF8B0
:10185000204600F04CF9257720680169C943C90684
:1018600017D4C168C943C90613D46FF010010161D0
:10187000082020772068C06910F4407F204602D0FD
:10188000FFF791FF04E000F09DF8204600F02FF9EB
:10189000257720680169C943C90708D1C168C943D0
:1018A000C90704D1891E0161204600F07BF9206838
:1018B0000169C943090609D4C168C943090605D4A9
:1018C0006FF0800101612046FFF75EFD206801692D
:1018D000C943490609D4C168C943490605D46FF014
:1018E00040010161204600F041FA20680169C943C6
:1018F00089060BD4C168C943890607D46FF020015B
:1019000001612046BDE87040FFF73FBD70BD00009B
:1019100070B586B000210091019102910391026897
:10192000234802240121234DB2F1804F1DD0224BC8
:101930009A4218D1826942F0100282618069039153
:1019400000F0100004904FF43070CDE900046946B7
:101950001A48FFF7F5F8686820F4406040F0E0604E
:1019600040F44060686006B070BD826942F00802D1
:1019700082618069124E00F0080004904FF480608C
:10198000CDE90004039169463046FFF7D9F8F01419
:10199000CDE90004694630460394FFF7D1F8686842
:1019A00020F4407040F0E06040F40070DAE700009E
:1019B00000100240000001400004004000100140FF
:1019C000000C0140704770B5044690F83C000026BA
:1019D0000D4601280FD0012084F83C006AB1042A8A
:1019E0001DD0082A2FD00C2A3FD00126002084F8D1
:1019F0003C00304670BD022070BD206801F02AFC1A
:101A00002068816941F0080181612068816921F0C5
:101A100004018161206881692A69114311E020680D
:101A200001F048FC2068816941F40061816120680F
:101A3000816921F480618161206881692A6941EAB4
:101A400002218161D2E7206801F06AFC2068C16947
:101A500041F00801C1612068C16921F00401C16140
:101A60002068C1692A69114311E0206801F08CFCEB
:101A70002068C16941F40061C1612068C16921F435
:101A80008061C1612068C1692A6941EA0221C1619E
:101A9000ACE710B5040003D094F83D0010B107E0A6
:101AA000012010BD002084F83C00204600F01EF804
:101AB000022084F83D00211D206801F065FB012013
:101AC00084F8460084F83E0084F83F0084F8400023
:101AD00084F8410084F8420084F8430084F844000C
:101AE00084F8450084F83D00002010BD7047704721
:101AF00010B50446022249B104290ED0082913D09A
:101B000094F84100012816D0012010BD94F83E0041
:101B10000128F9D184F83E200FE094F83F00012815
:101B2000F2D184F83F2008E094F840000128EBD17E
:101B300084F8402001E084F841200122206801F06F
:101B400069FB13492068134A884201D0904203D1AF
:101B5000436C43F400434364206888420DD09042B4
:101B60000BD0B0F1804F08D00B49884205D00B490B
:101B7000884202D00A49884204D1816801F00701F5
:101B8000062903D0016841F001010160002010BD69
:101B9000002C0140003401400004004000080040D7
:101BA000000C004070B5054601685D48026891422E
:101BB0000ED1546A5B4942F210739C42486A01D2CA
:101BC000401C03E0546A9C4201D3401E48625362A9
:101BD0005548564C85420AD101F0D0FE6088411C20
:101BE00061800A2803D90020608001F00DFE504872
:101BF00085427BD14F480068FEF77AFC4E4D286045
:101C00004E480068FEF774FCA8604D480068FEF777
:101C10006FFC4C4D28604C480068FEF769FCA860DA
:101C20004A480068FEF764FC494D2860494800684E
:101C3000FEF75EFCA86048486FF009060088B0B364
:101C4000606800286BD0A168002968D0FEF747FCC7
:101C500001F070FF414D0A2802DD28880A3810E0A3
:101C60006068FEF73CFC01F065FFB04202DA2888AC
:101C70000A3006E06068FEF732FC01F05BFF29885D
:101C8000081A2880A068FEF72AFC01F071FF344D85
:101C90000A2802DD28880A3011E0A068FEF71FFC40
:101CA00001F066FFB04203DA28880A3807E00EE048
:101CB000A068FEF714FC01F05BFF29880844288027
:101CC0002749042001F0BAFF2449002023E02548D9
:101CD0000088002823D06068FEF701FC01F00EFFA9
:101CE000214D0A2803DD28880A3011E017E06068DA
:101CF000FEF7F5FB01F002FFB04202DA28880A384D
:101D000006E06068FEF7EBFB01F0F8FE2988084466
:101D1000288015490C20BDE8704001F08FBF70BDD0
:101D200098020020601E0020080200200000002011
:101D30005002002094000020000C00209800002099
:101D40009C000020140C0020A0000020A400002013
:101D5000280C0020A8000020AC000020C4010020B6
:101D6000C0010020B0000020C8010020704770476B
:101D700070470000F8B5016804460868CA684B69F6
:101D800010F00F0F4FF0000559D003F0010602F4D8
:101D90009077374365D0C10705D0D10503D5616C75
:101DA00041F001016164410705D5D90703D0616C99
:101DB00041F002016164810705D5D90703D0616C48
:101DC00041F004016164010707D502F020013143AD
:101DD00003D0616C41F008016164616C00293AD064
:101DE000800604D5900602D5204601F047FB206806
:101DF0004069616CC0F38010090700D460B32046CD
:101E000001F015FB20684069400621D52068143098
:101E100050E8001F21F0400140E80012002AF5D1EF
:101E2000E06BA8B16D494163E06BFEF781FD0028CE
:101E300011D0E06B416B01B0BDE8F040084783066C
:101E40000FD593060DD52046BDE8F84001F016BB2E
:101E50002046FFF78DFFF8BD2046FFF789FF656438
:101E6000F8BD266B2023012E7CD1C6067AD5D60676
:101E700078D508684868009048694FF00206400627
:101E800040D5E16B086840680004000CE8D0A28DE2
:101E90008242E5D9E085886920282DD020680C3061
:101EA00050E8001F21F4807140E80012002AF5D1AB
:101EB0002068143050E8001F21F0010140E80012B2
:101EC000002AF5D12068143050E8001F21F04001AD
:101ED00040E80012002AF5D184F8423025632068DA
:101EE0000C3050E8001F21F0100140E80012002AD9
:101EF000F5D1E06BFEF7F9FC6663A08DE18D401A29
:101F000081B22AE0A08DE18D401A81B2E08D0028D7
:101F1000A6D00029A4D022680C3252E8000F20F489
:101F2000907042E80007002FF5D12068143050E887
:101F3000002F22F0010240E80027002FF5D184F89D
:101F40004230256320680C3050E8002F22F0100248
:101F500040E80023002BF5D166632046FFF707FF1A
:101F6000F8BDFFE705062BD5150629D594F84100E5
:101F70002128F5D1A068B0F5805F01D12069B0B10A
:101F8000206A411C2162216800784860E08C401E74
:101F90000004000CE084E3D12068C16821F08001D6
:101FA000C1602068C16841F04001C160D8E7206A83
:101FB0000088C0F308004860206A801C2062E5E7C2
:101FC0004006CDD55006CBD5CA68204622F0400247
:101FD000CA6084F8413000F00DF9C1E71F340008F1
:101FE00070B5040004D094F84100002510B106E05B
:101FF000012070BD84F84050204600F023F82420D2
:1020000084F841002068C16821F40051C160204675
:1020100001F096FA2068016921F49041016120687D
:10202000416921F02A0141612068C16841F40051F1
:10203000C1606564202084F8410084F84200656333
:10204000002070BD70B586B0002400940194029405
:1020500003942E4E03682E49022003222D4DB342D5
:1020600026D18B6943F480438B618B6903F48043F1
:1020700004938B6943F004038B618969039201F037
:10208000040104910102CDE9001069462846FEF7DB
:1020900057FD2815CDE90004694628460294FEF74D
:1020A0004FFD002211462520FEF7BCFE252028E02A
:1020B000194EB34227D1CB6943F40033CB61CB69CE
:1020C00003F4003304938B6943F004038B61896943
:1020D000039201F0040104910421CDE90010694646
:1020E0002846FEF72DFD0820CDE900046946284664
:1020F0000294FEF725FD002211462620FEF792FEEF
:102100002620FEF781FE06B070BD000000380140B9
:1021100000100240000801400044004090F84230A6
:10212000202B01D00220704721B11AB10023036394
:1021300001F062BA0120704710B504462948844274
:1021400001D1FEF717FB2848844225D1274C2849A6
:102150000022607820B1012807D0022820D007E0B3
:1021600008682C2804D1012018E04868122814D0EF
:10217000627022705FF0000041F82020401CC0B265
:102180000628F9D32078012201EB80011648FFF7D9
:10219000C5FF2078401C207010BD02206070F1E760
:1021A000207806280CD0EDD9627022704FF0000024
:1021B00041F8202000F10100C0B20628F8D3E1E781
:1021C00048695B28DED1087A01F064FD6060087B15
:1021D00001F060FDA060087C01F05CFDE060227011
:1021E0006270CFE7E00200202803002000000020FA
:1021F000F00100207047FEE7054806494278012AB1
:1022000002D10A78002AF9D0012141700078704784
:10221000230000204C0000202DE9F04107461C4619
:1022200015460E462A2000F021FA7F1CB8B200F0B5
:1022300012FA6D1CA8B200F00EFA2B2000F016FA6C
:10224000B61CB0B200F007FAA41CA0B200F003FA6A
:10225000BDE8F0412C2000F009BA10B514460B4639
:102260000246FFF7D9FF2046BDE8104000F0F3B961
:102270002DE9F04780461F46581E83B21646501E71
:1022800082B20C464046DDF82090FFF7C5FF0AE019
:10229000454604E0484600F0DEF96D1CADB2B5429B
:1022A000F8D3641CA4B2BC42F2D3BDE8F0870000AE
:1022B00010B57E4C002240212046FEF742FD6420EE
:1022C000FEF7CEFB012240212046FEF73AFD6420B6
:1022D000FEF7C6FB012251022046FEF732FD6420C4
:1022E000FEF7BEFB112000F0C1F97820FEF7B8FB25
:1022F000B12000F0BBF9022000F0CCF9352000F04D
:10230000C9F9362000F0C6F9B22000F0AFF902207A
:1023100000F0C0F9352000F0BDF9362000F0BAF920
:10232000B32000F0A3F9022000F0B4F9352000F04A
:10233000B1F9362000F0AEF9022000F0ABF93520FB
:1023400000F0A8F9362000F0A5F9B42000F08EF9CD
:10235000032000F09FF9C02000F088F9A22000F0CF
:1023600099F9022000F096F9842000F093F9C12039
:1023700000F07CF9C52000F08DF9C22000F076F95C
:102380000D2000F087F9002000F084F9C32000F050
:102390006DF98D2000F07EF92A2000F07BF9C42031
:1023A00000F064F98D2000F075F9EE2000F072F96C
:1023B000C52000F05BF90A2000F06CF9362000F02F
:1023C00055F9782000F066F9E02000F04FF912206E
:1023D00000F060F91C2000F05DF9102000F05AF9BF
:1023E000182000F057F9332000F054F92C2000F0A9
:1023F00051F9252000F04EF9282000F04BF9282053
:1024000000F048F9272000F045F92F2000F042F9AC
:102410003C2000F03FF9002000F03CF9032000F0E0
:1024200039F9032000F036F9102000F033F9E120EB
:1024300000F01CF9122000F02DF91C2000F02AF900
:10244000102000F027F9182000F024F92D2000F0CA
:1024500021F9282000F01EF9232000F01BF9282084
:1024600000F018F9282000F015F9262000F012F9E4
:102470002F2000F00FF93B2000F00CF9002000F0B5
:1024800009F9032000F006F9032000F003F91020F9
:1024900000F000F93A2000F0E9F8052000F0FAF821
:1024A000BDE81040292000F0E1B80000000C014018
:1024B0002DE9FF4F81B00446DDE90F7B4FEA570855
:1024C00000904FEAD80000FB07FA203AD0B2039000
:1024D000029802993844401E83B204EB0800401E63
:1024E00082B22046FFF798FE002637E0102F24D056
:1024F000202F35D11C49039801EB80105FF00005B7
:1025000010F80690BBF1000F4FF0010000FA05F043
:1025100000EA090016D020B12046049A0299FFF77C
:102520009CFE641C0098A4B2211A414510D1029867
:10253000009C401C80B202900EE00C49039801EB15
:102540000010DBE708B1049800E00E9800F083F873
:102550006D1CEDB2082DD5D3761CB6B25645C5D349
:1025600005B0BDE8F08F0000B2420008C23C000890
:102570002DE9FF4F83B01D46DDE911B907464FF045
:10258000000A4FEA5908160010D50022494658465D
:102590008DE807002D223846109B0499FFF788FF2D
:1025A000764207EB08006D1E87B2EDB2002430E0E2
:1025B000281B401EC1B20A2001F098FAB6FBF0F0C9
:1025C0000A21B0FBF1F201FB1200BAF1000F05D1B4
:1025D000691E8C4202DA68B14FF0010A00213030E6
:1025E000CDF800B0C2B2CDE9019104FB087080B211
:1025F000109B09E00020CDF800B0CDE9019004FB6C
:102600000870109B80B220220499FFF751FF641CD0
:10261000E4B2AC42CCD307B0BDE8F08F2DE9FE4F59
:102620009946DDE90D6714468A460546DDF8308097
:102630000CE0CDF800804B4651462846CDE90167B5
:10264000FFF736FF05EB560085B2641C2278002A9E
:10265000EFD1BDE8FE8F10B50446000A00F01AF86D
:10266000E0B2BDE8104000F015B8000070B5084CAD
:102670000546002280212046FEF763FB284600F035
:1026800009F82046BDE8704001228021FEF759BBC1
:10269000000C01402DE9F041144E05464FF48077BF
:1026A000002239463046FEF74CFB00240022102160
:1026B0003046FEF746FB280601D5012200E0002245
:1026C00020213046FEF73DFB012210213046FEF767
:1026D00038FB6806641C050EE4B2082CE6D33946C4
:1026E0003046BDE8F0410122FEF72BBB000C014053
:1026F0002DE9FE4F4FF6FF76802300211A4608464B
:102700000096FFF7B5FD4FF4FA6900251C4C1D4FEC
:10271000DFF874A04FF010081AE0042803D02078E6
:10272000032803D006E00021484601E04946002086
:1027300001F06EFA51463868FDF7A3FDFDF7DDFEA6
:102740008DE860010246002104230846FFF710FFD0
:10275000207802282078E0D1022803D1607808B9D7
:1027600001206070094801680D640068C56380231A
:1027700000211A4608460096FFF77AFDBDE8FE8F55
:1027800023000020601E00200000204108020020DD
:1027900070B586B0002429480094019402940394F3
:1027A000816941F020018161816901F0200104917A
:1027B000816941F004018161816901F004010491A2
:1027C000816941F008018161816901F0080104918A
:1027D000816941F0100181618069194E00F010009B
:1027E000049000224FF47C713046FEF7AAFA4FF4B1
:1027F000E85001258DE8310069461248FEF7A0F93E
:1028000028038DE8310069460F48FEF799F94FF427
:102810006C70CDE900050320CDE9024069463046E1
:10282000FEF78EF94020CDE900050220CDE90240F7
:1028300069463046FEF784F906B070BD00100240CC
:10284000000C0140001001400008014010B58EB09E
:1028500000240794089409940A940B941C21684658
:102860000C94FDF798FC22484FF0804101606321F1
:10287000C0E9011441F61F41C0E9031480218161C0
:10288000FEF7C2FD08B1FDF7B5FF4FF48050079089
:1028900007A91748FEF74CFE08B1FDF7ABFF144837
:1028A000FFF7F7F808B1FDF7A5FF0B940BA9104847
:1028B0000C94FEF76BFD08B1FDF79CFF6020CDE99D
:1028C000000402940822694609480494FFF77BF843
:1028D00008B1FDF78FFF0C2269460548FFF773F832
:1028E00008B1FDF787FF0248FFF712F80EB010BDE0
:1028F0000802002010B58EB00024079408940994B3
:102900000A940B941C2168460C94FDF744FC28485B
:1029100026490160C721C0E9011441F61F41C0E901
:10292000031480218161FEF76FFD08B1FDF762FF9E
:102930004FF48050079007A91D48FEF7F9FD08B134
:10294000FDF758FF1A48FFF7A4F808B1FDF752FF4A
:102950000B940BA916480C94FEF718FD08B1FDF76F
:1029600049FF602000904FF41670CDE90104002269
:1029700069460F480494FFF726F808B1FDF73AFFBF
:10298000042269460A48FFF71EF808B1FDF732FF36
:102990000C2269460648FFF716F808B1FDF72AFF32
:1029A0000348FEF7B5FF0EB010BD00000004004064
:1029B0005002002010B58CB024216846FDF7EBFBD7
:1029C00000241648099414490A94C0E9001444F6F6
:1029D0002061C0E90241046184610320CDE9000463
:1029E0000120CDE902040494CDE90540079469462D
:1029F0000A480894FEF70AFE08B1FDF7FBFE0994A9
:102A000009A906480A94FEF7C1FC002801D0FDF789
:102A1000F1FE0CB010BD0000000C00409802002038
:102A20000C4810B50A4901604FF4E13141600021C2
:102A300081600C22C160C0E904128161C161FFF7AD
:102A4000CFFA002803D0BDE81040FDF7D3BE10BD7B
:102A500000380140E00200200C4810B50A4901602E
:102A60004FF4E1314160002181600C22C160C0E976
:102A700004128161C161FFF7B3FA002803D0BDE8F9
:102A80001040FDF7B7BE10BD0044004028030020F1
:102A90003EB50E49002008704FF6FF7480231A4699
:102AA00001460094FFF7E4FB012500F019FA074AFC
:102AB0002B46383201A906A000F0C0F8802300217F
:102AC0001A4608460094FFF7D3FB3EBD4C00002099
:102AD000202D3D202053657474696E6720203D2DA4
:102AE00020000000FEE72DE9FF4F002485B01746C7
:102AF0000D460646A2464FF010084FF6FF794FF4F8
:102B0000784B51E020011030C0B203900898A042E9
:102B1000504609D11F2200922919CDE9018006EB08
:102B200001114B460A6808E0CDF800902919CDE95B
:102B3000018006EB01111F230A680399FFF76EFD60
:102B4000281906EB0011087A18B1012801D00228D3
:102B500028D14FF0540C20B1012808D0022812D0FF
:102B600020E0486805230268CDF800B004E048681A
:102B700006230268CDF800B0CDE9019860460399BC
:102B8000FFF7F6FC0EE048685B460068CDE9009868
:102B9000CDF808A0C96800EB80000A1860460399C8
:102BA000FFF73CFD641CE4B2BC42ABD309B0BDE806
:102BB000F08F38B501244FF6FF7205292ED2DFE8D9
:102BC00001F0252F2B0B0300417809B1491E09E0C4
:102BD000817829B3491E10E0037941785B1E994240
:102BE00002DA491C417019E0437981785B1E9942F1
:102BF00001DA491C01E000214170817080230092BC
:102C000000211A460846FFF733FB07E04178827837
:102C100000241144C17001E001210170204638BD3B
:102C20000179491E41704179D4E700230370437054
:102C30008370C37001714271704700002DE9F04F3D
:102C40008346D81F8BB092460C46002801DC012237
:102C500002E09B1FDAB2072319462046FFF7E5FF83
:102C6000002710264FF478494FF6FF758DE8E000F5
:102C700000214B465A460846FFF7D0FC637822797C
:102C8000A1785046FFF72FFFFFF7B6FA014620461E
:102C9000FFF78FFF002867D1E1780AEB0112117A64
:102CA00041B1012906D0022904D004293ED00329CC
:102CB0003FD059E094F801C054204FEA0C1C434621
:102CC0000CF1100C60F307030CF0FF0C6CF30F23F6
:102CD000984621B1012909D0022911D01DE0CDE982
:102CE00000590296516805230A6805E0CDE90059AC
:102CF0000296516806230A686146FFF739FC0CE02A
:102D0000CDF80090CDE90167D16852682B46126872
:102D100001EB82026146FFF781FCE1784B460AEB4A
:102D200001112A46404600F0E9FC1DE0D0688047CA
:102D30001AE017495068884216D0802300211A46AD
:102D400008460095FFF794FAE1780AEB0110016854
:102D500006A800F07DF9E1780AEB011002A9037BD7
:102D6000426806A8FFF76AFF207828B90848001FC4
:102D7000007800283FF47AAF00F068FC802300213F
:102D80001A4608460095FFF773FA0BB0BDE8F08FBE
:102D900050000020FEE700218160C16001610160F8
:102DA00041604161704700002DE9F05F8B460446A9
:102DB000DDE90C1091469A46FDF75DFA0646A060E3
:102DC0002068FDF7B3FB4FF0FF384246FDF770FB7C
:102DD00007460D463046E168FDF74DFAFDF7A6FBC4
:102DE0004246FDF765FB3A462B46FDF7BAFAFDF77A
:102DF000B0FB0546206031466068FDF7EAF94946B8
:102E00006060FDF73EFADFF83C804146FDF76BFA63
:102E1000074651462846FDF734FA4146FDF763FA66
:102E2000054659463046FDF72CFA4146FDF75BFA58
:102E30002946FDF7CEF93946FDF7CBF9E66060612A
:102E4000BDE8F09F0000C84270470000FEB54FF695
:102E5000FF74802300211A4608460094FFF708FA01
:102E6000174F28E000251026CDE900462B4615A275
:102E7000294628460295FFF7D1FB1748CDE90054B3
:102E800002960268032310210020FFF771FB13480C
:102E9000CDE9005402960268032320210020FFF7A9
:102EA00067FBCDE9005403236FF0C70230210020F7
:102EB0000296FFF75DFB38780228D3D1FEBD0000F3
:102EC00023000020626567696E20746F207265635D
:102ED00069657665200000000400002008000020DD
:102EE00010B500F013FD054809220168044800F000
:102EF0001BF8BDE8104000F009BD00006000002094
:102F000000F003080149002000F098BEC401002031
:102F100001490C2000F092BEC801002001490420A4
:102F200000F08CBEC001002010B5002304E010C8E2
:102F300041F823405B1C9BB29342F8D310BD0000C4
:102F40002DE9F04116460F46054600240AE000BF71
:102F500057F82420002329460220FDF79DFD641C1C
:102F6000A4B22D1DB442F3D3BDE8F0812DE9F05F8A
:102F7000A0F1006415468A468346B4F5002F5FD25F
:102F8000FDF7CAFDE70AC4F38806C6F50074A5423A
:102F900000D82C46DFF8AC904FF0006000EBC72063
:102FA00080464FF400722749FFF7BEFF00204FF61E
:102FB000FF7106E0331859F823208A4203D1401CE0
:102FC00080B2A042F6D3A0422ED24046FDF77AFC52
:102FD0004CF25030FDF74CFC1B48016921F0020116
:102FE00001610020494606E05AF820208319401C60
:102FF00041F8232080B2A042F6D3124940464FF454
:10300000007200BFFFF79CFFA54215D0281B0AEBFA
:10301000840A0BEB840B002685B24FF400747F1CEE
:10302000A542B9D82C46B7E74CF25030FDF720FC4A
:10303000224651465846E5E7BDE8F05FFDF722BD60
:10304000BDE8F09F6014002000200240704700009F
:10305000F0B5074627A087B00068059026A00E4669
:1030600000680690002005463D54401CC0B214285C
:10307000FAD30846FDF7A6F8C4B20020694608E076
:10308000325C0A54325C202A01D10D540446401CA3
:10309000C0B2A042F4D30E2C00D90E2405A93846A4
:1030A000FDF784F8C4F10E00002500EBD07605E0B2
:1030B00012A13846FDF77AF86D1CEDB2B5EB660F3C
:1030C000F6DB69463846FDF771F8C4F107000025C4
:1030D00000EB540405E009A13846FDF767F86D1CC4
:1030E000EDB2AC42F7DC06A93846FDF75FF807B051
:1030F000F0BD0000202D3D003D2D200020000000EF
:10310000FDF72ABE30B58FB028216846FDF743F899
:1031100014210AA8FDF73FF801210804CDE90010A9
:103120000024029402250491CDE907504FF4E010E9
:1031300009906846FDF784FF08B172B6FEE70F20DC
:10314000CDE90A054FF48060CDE90C4002210AA8C0
:103150000E94FDF799FE002801D072B6FEE70FB07D
:1031600030BD70470148FEF71FBB00000802002079
:103170000148FEF719BB0000500200200148FEF78D
:1031800013BB000098020020F0B502681C4B1D4DD7
:103190001D4E1E4F1E4C4FF0804C984209D0A0424D
:1031A00007D0604505D0A84203D0B04201D0B84254
:1031B00004D122F0700E4A6842EA0E02984209D009
:1031C000A04207D0604505D0A84203D0B04201D04C
:1031D000B84203D122F44075CA682A434D6922F0EF
:1031E00080022A4302608A68C2620A688262984248
:1031F00001D0A04201D10969016301214161F0BD03
:10320000002C01400004004000080040000C004079
:103210000034014010B501F01F030121046A9940F8
:103220008C430462016A9A401143016210BD10B5DB
:10323000846842EA032224F47F440A4322438260E2
:1032400010BD826822F070020A4342F007018160DB
:1032500070470000F0B5036A026A22F001020262C0
:1032600042688469124E24F073050C682C4323F0E5
:1032700002058B682B430D4DA84201D0B04205D109
:1032800023F00807CB683B4323F00403A84201D096
:10329000B04205D14D6922F4407215438A692A4330
:1032A00042608461496841630362F0BD002C0140C3
:1032B00000340140F0B5026A036A23F01003036290
:1032C000436884690D6824F4E64444EA05248D6863
:1032D00022F0200242EA05120F4D104EA84201D002
:1032E000B04206D1CF6822F0800242EA071222F0F3
:1032F0004002A84201D0B04207D14D6923F4406397
:1033000043EA85038D6943EA850343608461496824
:1033100081630262F0BD0000002C014000340140D6
:10332000F0B5026A036A23F4807303624368C469D8
:1033300022F4007224F073050C68124E2C438D6841
:1033400042EA05220E4DA84201D0B04206D1CF6814
:1033500022F4006242EA072222F48062A84201D0ED
:10336000B04207D14D6923F4405343EA05138D69F8
:1033700043EA05134360C4614968C1630262F0BD5A
:10338000002C01400034014030B5046A026A22F486
:10339000805202624268C3690D6823F4E64343EA3F
:1033A00005238D6824F4005444EA0534084DA842EE
:1033B00002D0084DA84204D14D6922F4804242EA6D
:1033C00085124260C36149680164046230BD000037
:1033D000002C01400034014010B5036A046A24F057
:1033E00001040462846924F0F00444EA021423F026
:1033F0000A020A438461026210BD10B5036A046ABE
:1034000024F010040462846923F0A00324F47044BF
:1034100044EA023243EA01118261016210BD10B533
:10342000406A0021C185C184FEF7A2FC10BD01687D
:103430000C3151E8002F22F4907241E80023002B58
:10344000F5D10168143151E8002F22F0010241E862
:103450000023002BF5D1016B012909D101680C3142
:1034600051E8002F22F0100241E80023002BF5D193
:10347000202180F8421000210163704708B590F8C0
:103480004210222901D0022008BD82684FF48053E7
:103490009A4201D1016921B1816A9A421BD04AB195
:1034A0000AE00268816A5268C2F308020A80816AEF
:1034B000891C08E0026972B10268526802F07F025A
:1034C0000A70816A491C8162C18D491E0904090C78
:1034D000C18503D01BE002685268F1E70168CA6841
:1034E00022F02002CA600168CA6822F48072CA60B1
:1034F00001684A6922F001024A61202180F84210E5
:1035000000214163026B012A03D0FEF715FE002063
:1035100008BD016301680C3151E8002F22F0100250
:1035200041E80023002BF5D101680A68D20602D5D4
:103530000A6849680091818DFEF719FCE7E70000F1
:1035400070B5044600680169E26821F440511143F6
:1035500001612169A0680843616908432168CA685C
:1035600041F20C639A430243CA6020684169A26930
:1035700021F44071114341611E492068884202D103
:10358000FDF728FD01E0FDF715FD00EBC00101EBA3
:103590000012606864218000B2FBF0F3B3FBF1F32A
:1035A0006FF018067343B2FBF0F5B2FBF0F605EBD3
:1035B0008305322303EB0515B5FBF1F5B6FBF1F6F8
:1035C00005F0F00505EB0615B2FBF0F6B2FBF0F0E6
:1035D000B0FBF1F06FF01802504306EB800003EBF4
:1035E0000010B0FBF1F0216800F00F002844886063
:1035F00070BD00000038014081628285C2850021D3
:103600004164222180F84210016921B10168CA6831
:1036100042F48072CA6001684A6942F001024A615C
:103620000068C16841F02001C160002070470000BF
:103630000148FEF79FBB0000E00200200148FEF7B2
:1036400099BB000028030020FEE7000010B5084CDD
:103650002046FDF737F900F059F9064809220168BC
:103660002046FFF783FCBDE8104000F04FB9000092
:1036700000F00308600000200907090E002804DBA1
:1036800000F1E02080F80014704700F00F0000F116
:10369000E02080F8141D704702E008C8121F08C11E
:1036A000002AFAD170477047002001E001C1121FC3
:1036B000002AFBD1704700000E498A78022A18D0F0
:1036C0000D4A4B7802F813004B78000A02EB4302D4
:1036D00050704878401C48704878142801D3002066
:1036E000487048780A78904201D1022000E0012019
:1036F0008870704720000020900300202DE9FE4FC5
:10370000DFF8FC803F4E1D4691460C46102700F026
:10371000FF0BC0F3072A00BFFEF76EFD217A327857
:103720006068012A32D0022A21D0032A10D0042A4C
:103730003CD121B1012902D0022903D05AE001680D
:10374000491C2BE00168052946DA0246491C2CE099
:1037500021B1012902D0022903D04BE00168491EA2
:103760001CE00168002937DD0246491E1DE021B139
:10377000012902D0022903D03CE001680A390DE09A
:103780000168052928DD0246491F0EE021B1012903
:1037900002D0022904D02DE001680A31016005E061
:1037A0000168012918DA0246491D1160217A21B108
:1037B000012902D002290FD01CE0CDF80090CDE9FC
:1037C00001570268052351465846FEF7D1FEE068CE
:1037D00040450FD080470DE000210095CDE90171F3
:1037E0000068E16800EB80000A184B4651465846D5
:1037F000FEF714FF307800288ED1BDE8FE8F000060
:10380000E9080008230000202DE9F0411F4C606802
:10381000A0601F482668666000680168C1F3001157
:10382000A162416A626AC06A02FB00152563E06A10
:10383000281AFCF754FE1749FCF755FD164F394678
:10384000FCF71FFDE5623946E060FCF71AFD1349FD
:1038500020F00040884200DDE660E0683146054621
:10386000FCF709FD0E49884203DD2846FCF7B1FC50
:1038700005E010F17D5F03D92846FCF7FCFCE06011
:10388000BDE8F041012000F00DB80000601E0020EE
:10389000980200200000CC440000204100001643A4
:1038A0000000C04070B5154C01460129E06804D005
:1038B00002290CD004291FD118E06168FCF789FCAB
:1038C000A168FCF786FC0E49FCF70DFD14E00E4ADA
:1038D00001460C4D1046FCF7D4FC064628462168EC
:1038E000FCF7CFFC3146FCF774FC05E0FCF705FE65
:1038F00000F014F8FCF7F3FD206070BD601E00209E
:1039000000004040CDCCCC3D6666663FFF224FF4C0
:1039100000710148FCF738BCB80300202DE9F041E4
:10392000FCF7DDFD144C8046D4E90101A569FCF7E4
:1039300050FC0746E168FCF74CFC01463846FCF7B2
:10394000D2FC064629464046FCF795FC3146FCF77A
:1039500098FC2946FCF73DFC054631464FF07E5069
:10396000FCF789FC3946FCF78CFCA56160602846B1
:10397000BDE8F041FCF7C1BDD40100202DE9F041C4
:103980000024234D4FF002082746AE1C204600F0CD
:1039900041F80028305D13D00A280AD92C70012084
:1039A0006870297861F30700697861F30F20FFF7E9
:1039B00083FE3755641CE4B2052CE7D3BDE8F081E3
:1039C000401CC0B230550A28F4D90B2809D033283E
:1039D0000AD02821333890FBF1F201FB120018B114
:1039E0000EE02C706F7003E02C70404685F801806B
:1039F000297861F30700697861F30F20FFF75CFE17
:103A0000305D401CFF28D5D933203055D2E7000067
:103A1000230000200649064A10B5143A31F8101068
:103A200052F82000FDF788F9002800D0012010BDD1
:103A30004000002008B5FDF797F9FFF763FBFEF79C
:103A4000A7FEFEF757FFFEF7EBFFFEF7FFFEFFF7BF
:103A500003F8FEF7AFFF00F0BFF800F035F800F014
:103A6000A5F81248FDF72EFD1148FDF72BFD0122A8
:103A700010491148FEF752FB1149104801220978FC
:103A800000EB81010F48FEF749FBFCF791FEFEF7C2
:103A90000FFC4FF6FF708023002100901A46084665
:103AA000FEF7E6FBFEF7F4FFFEE700000802002049
:103AB00050020020601E0020E0020020F0010020E3
:103AC000000000202803002010B50C210648FEF756
:103AD0000FF808210448FEF70BF80348002102689C
:103AE00011640068C16310BD080200200246012075
:103AF00000E05043491EC9B2FBD270471FB50021F8
:103B0000CDE902010948D0E91F12CDE90012703059
:103B100090E80E004038FFF747F9054980F0004073
:103B2000886004B0BDE81040FCF7E7BCB80B00208B
:103B3000B40100201FB50B49CDE902010A48D0E9C4
:103B40001A12CDE900125C3090E80E004438FFF7FD
:103B50002BF9064980F00040086004B0BDE8104031
:103B6000FCF7CBBC00002043B80B0020B4010020C0
:103B70001FB50B49CDE902010A48D0E91512CDE97C
:103B80000012483090E80E004838FFF70DF906495A
:103B900080F00040486004B0BDE81040FCF7ADBCC8
:103BA0000000F042B80B0020B401002010B5094815
:103BB000FFF7F1F807490020483108604860886045
:103BC000143108604860886014310860486088607B
:103BD00010BD0000B80B002010B500210B48FDF708
:103BE00087FF04210948FDF783FF0C210748FDF7F3
:103BF0007FFF064840F23A210268516302684FF4A1
:103C0000167191630068016410BD0000500200202D
:103C100010B541F2B03230B111B10020014602E0DE
:103C2000904200D91046044B1C682064914200D990
:103C300011461868C16310BD0802002010B50A685B
:103C400040B140F2EE244FF4AF73042807D00C28A3
:103C50000CD104E04FF42F739A4206D806E0A2423A
:103C600001D90C6002E09A4200D20B600968084A50
:103C700030B1042807D00828106807D0016410BDAF
:103C80001068416310BD1068816310BDC16310BD31
:103C90005002002040B270470102020304050607EB
:103CA00008090A0B0C0D0E0F101000000000000098
:103CB00000000102030406070809000000000102D9
:103CC00003040000000000000000000000000000ED
:103CD000000000000008080808080808000018187C
:103CE000000000486C2412000000000000000000EA
:103CF00000000000002424247F1212127F121212EE
:103D000000000000081C2A2A0A0C1828282A2A1C4D
:103D1000080800000022251515152A58545454226D
:103D200000000000000C1212120A76252911916E73
:103D30000000000606040300000000000000000070
:103D40000000004020101008080808080810102083
:103D50004000000204080810101010101008080499
:103D600002000000000008086B1C1C6B0808000023
:103D7000000000000000080808087F080808080084
:103D80000000000000000000000000000000060627
:103D900004030000000000000000FE00000000001E
:103DA0000000000000000000000000000000060607
:103DB0000000000080404020201010080804040289
:103DC00002000000001824424242424242422418AB
:103DD0000000000000080E08080808080808083E4F
:103DE00000000000003C4242422020100804427EB5
:103DF00000000000003C4242201820404042221CAB
:103E00000000000000203028242422227E20207878
:103E100000000000007E0202021A26404042221CDE
:103E20000000000000382402021A264242422418F0
:103E300000000000007E2222101008080808080870
:103E400000000000003C4242422418244242423C0E
:103E50000000000000182442424264584040241CE4
:103E600000000000000000001818000000001818F2
:103E70000000000000000000000800000000000832
:103E8000080400000040201008040204081020402C
:103E900000000000000000007F0000007F00000024
:103EA0000000000000020408102040201008040256
:103EB00000000000003C424246402010100018184C
:103EC00000000000001C225A555555552D42221C59
:103ED00000000000000808181414243C224242E7A5
:103EE00000000000001F2222221E22424242221F06
:103EF00000000000007C4242010101010142221C3D
:103F000000000000001F2242424242424242221F61
:103F100000000000003F4212121E12120242423FF5
:103F200000000000003F4212121E1212020202079D
:103F300000000000003C2222010101712122221C0C
:103F40000000000000E7424242427E42424242E715
:103F500000000000003E0808080808080808083E9D
:103F600000000000007C1010101010101010101035
:103F7000110F0000007722120A0E0A121222227775
:103F80000000000000070202020202020202427F59
:103F9000000000000077363636362A2A2A2A2A6B95
:103FA0000000000000E346464A4A5252526262470D
:103FB00000000000001C2241414141414141221CBE
:103FC00000000000003F424242423E02020202075D
:103FD00000000000001C2241414141414D53321C70
:103FE00060000000003F4242423E1212222242C7BD
:103FF00000000000007C4242020418204042423E81
:1040000000000000007F4908080808080808081C8C
:104010000000000000E74242424242424242423C2B
:104020000000000000E7424222242414141808086B
:1040300000000000006B49494949555536222222AB
:104040000000000000E7422424181818242442E746
:104050000000000000772222141408080808081C39
:1040600000000000007E2120101008040442423F9E
:104070000000007808080808080808080808080868
:104080007800000002020404080808101020202014
:104090004040001E101010101010101010101010C2
:1040A0001E00003844000000000000000000000076
:1040B0000000000000000000000000000000000000
:1040C00000FF0006080000000000000000000000E3
:1040D0000000000000000000003C4278444242FC26
:1040E0000000000000030202021A26424242261A81
:1040F00000000000000000000038440202024438C2
:10410000000000000060404040784442424264D8D1
:104110000000000000000000003C427E0202423C21
:104120000000000000F08808087E08080808083E23
:104130000000000000000000007C22221C023C4223
:10414000423C000000030202023A4642424242E779
:1041500000000000000C0C00000E08080808083ED3
:1041600000000000003030000038202020202020F7
:10417000221E0000000302020272120A16122277A7
:1041800000000000000E0808080808080808083E9B
:104190000000000000000000007F9292929292B70F
:1041A0000000000000000000003B4642424242E79F
:1041B0000000000000000000003C42424242423C3D
:1041C0000000000000000000001B26424242221EA8
:1041D0000207000000000000007844424242447898
:1041E00040E000000000000000774C040404041FBD
:1041F0000000000000000000007C42023C40423E03
:104200000000000000000008083E08080808083008
:10421000000000000000000000634242424262DCF5
:10422000000000000000000000E7422424140808F9
:10423000000000000000000000EB49495555222213
:104240000000000000000000007624181818246EFA
:10425000000000000000000000E7422424141808B9
:104260000807000000000000007E22100808447EBD
:10427000000000C02020202020102020202020200E
:10428000C00010101010101010101010101010108E
:104290001010000608080808081008080808080890
:1042A00006000C32C2000000000000000000000008
:1042B00000000000000000000000000000000000FE
:1042C00000000000000000000000000000000000EE
:1042D00000000000000000000000000000000000DE
:1042E00000000000000000000000000000000000CE
:1042F000000000000000000000000000C001C0013C
:10430000C001C001C001C001C00180008000800068
:10431000800080008000800000000000000000009D
:104320008001C003C0038001000000000000000005
:104330000000000000000000E01CE01CF01E700EF9
:104340003807180308018400000000000000000086
:10435000000000000000000000000000000000005D
:10436000000000000000000000000000000000004D
:10437000000000000000000000000000000020100D
:104380002010201020102010FE7FFE7F1008100843
:1043900010081008100810081008FE7FFE7F08049F
:1043A00008040804080408040000000000000000DD
:1043B0000000000000000000000000010001C00734
:1043C0006019103118311839183938017001E001BD
:1043D000C0038007000F001D003900311C311C3163
:1043E0000C310C11180DE007000100010001000064
:1043F00000000000000000000000000000001C1091
:1044000036186308630C6304630463026302630188
:10441000361D9C37802280634063406320632063A5
:10442000306310221836081C000000000000000055
:104430000000000000000000000000000000F0008C
:1044400098018C018C018C018C018C00CC007800CF
:10445000183E1C083608320863046304C304C3030F
:10446000834306438E26781C0000000000000000F5
:1044700000000000000000001C003C003C00300078
:10448000300010000C0006000000000000000000DA
:10449000000000000000000000000000000000001C
:1044A000000000000000000000000000000000000C
:1044B0000000000000000000004000200010000884
:1044C000000C0004000600030003000380018001CB
:1044D00080018001800180018001800100030003D0
:1044E000000300060006000C000800100020004039
:1044F000000000000000000002000400080010009E
:10450000300020006000C000C000C00080018001B9
:10451000800180018001800180018001C000C00015
:10452000C0006000600030001000080004000200BD
:10453000000000000000000000000000000000007B
:10454000000000018003800300011C713C79783D6C
:10455000C0070001C007783D3C791C710001800351
:104560008003800100000000000000000000000047
:10457000000000000000000000000000000000003B
:104580000000000000010001000100010001000125
:104590000001FC7F00010001000100010001000199
:1045A000000100000000000000000000000000000A
:1045B00000000000000000000000000000000000FB
:1045C00000000000000000000000000000000000EB
:1045D00000000000000000000000000000000000DB
:1045E00000001C003C003C003000300010000C00BB
:1045F00006000000000000000000000000000000B5
:1046000000000000000000000000000000000000AA
:104610000000FE7F0000000000000000000000001D
:10462000000000000000000000000000000000008A
:10463000000000000000000000000000000000007A
:10464000000000000000000000000000000000006A
:10465000000000000000000000000000000000005A
:1046600018003C003C0018000000000000000000A2
:10467000000000000000000000400060002000304A
:10468000001000180008000C0004000600020003DF
:10469000000180018000C000400060002000300068
:1046A0001000180008000C000400060002000000C2
:1046B0000000000000000000000000000000C00733
:1046C000600C30181830183018200C600C600C602A
:1046D0000C600C600C600C600C600C6018201830D2
:1046E00018303018600CC007000000000000000007
:1046F00000000000000000000000000000000001B9
:104700008001F80180018001800180018001800129
:104710008001800180018001800180018001800191
:1047200080018001C003F81F0000000000000000AD
:104730000000000000000000000000000000E00792
:10474000101C0818043004300C300C3000300018F5
:10475000000800040002000180004000202010201A
:1047600008200430FC1FFC1F0000000000000000B7
:104770000000000000000000000000000000E00356
:10478000180E0C0C0C180C180C180018000C000655
:10479000C003000E00180010003000300C300C3048
:1047A0000C100C18180CE0030000000000000000C2
:1047B0000000000000000000000000000000000CED
:1047C000000E000E000F800E800E400E600E200EB8
:1047D000100E100E080E040E040EFE7F000E000ECA
:1047E000000E000E000E000EC07F00000000000052
:1047F0000000000000000000000000000000F03F8A
:10480000F03F10001000100008000800C807280C36
:104810001818081000300030003000300C300C3018
:1048200004180418080CF003000000000000000049
:104830000000000000000000000000000000800FE9
:10484000C010203010301800180008000C008C0F29
:104850006C183C301C600C600C600C600C601860C4
:10486000182030306018C007000000000000000071
:104870000000000000000000000000000000F83F01
:10488000F83F1C100C080408040400040002000295
:10489000000100010001800080008000C000C00015
:1048A000C000C000C000C000000000000000000008
:1048B0000000000000000000000000000000E00711
:1048C000300C18180C300C300C301C3038187008B4
:1048D000E007B007180E0C1C06380630063006300C
:1048E00006300C18180CE003000000000000000067
:1048F0000000000000000000000000000000E003D5
:1049000018040C080C180610063006300630063065
:1049100006380C3C1836F03100300018001800182A
:104920000C0C0C060C03F00100000000000000005D
:104930000000000000000000000000000000000077
:104940000000000000000000000000008001C00323
:10495000C003800100000000000000000000000013
:104960008001C003C00380010000000000000000BF
:104970000000000000000000000000000000000037
:10498000000000000000000000000000C000C000A7
:104990000000000000000000000000000000000017
:1049A00000000000C000C000800080004000400007
:1049B00000000000000000000000000000200010C7
:1049C00000080004000600038001C0006000300001
:1049D00018000C00180030006000C00080010003C7
:1049E0000006000400080010002000000000000085
:1049F00000000000000000000000000000000000B7
:104A0000000000000000000000000000FE7F000029
:104A10000000000000000000FE7F00000000000019
:104A20000000000000000000000000000000000086
:104A3000000000000000000000000000040008006A
:104A4000100020006000C000800100030006000C80
:104A5000001800300018000C000600038001C000A0
:104A600060002000100008000400000000000000AA
:104A7000000000000000000000000000C007301827
:104A8000083008600C601C601C601C600030001C5A
:104A9000000600018000800080008000000000000F
:104AA0008001C003C003800100000000000000007E
:104AB0000000000000000000000000000000C0072F
:104AC0006018103018200C2F8C4D864CC64CC64CEC
:104AD000664C66446644662666266615CC1C0C4009
:104AE000082018303018C007000000000000000047
:104AF0000000000000000000000000000001C001F4
:104B0000C001C001400160032003200320033006E0
:104B1000100610061006F80F080C080C080C0C0CF8
:104B20000418041806181F7C000000000000000094
:104B30000000000000000000000000000000FE0770
:104B4000181C183818301830183018301818180C6D
:104B5000F8071818183018201860186018601860C6
:104B6000186018301818FE0F000000000000000048
:104B70000000000000000000000000000000C0274E
:104B80006038103018200C400C400400060006006D
:104B90000600060006000600060006000C400C4059
:104BA0000C2018303018C007000000000000000082
:104BB0000000000000000000000000000000FE03F4
:104BC000180E18181830183018301860186018604F
:104BD0001860186018601860186018601830183075
:104BE00018101818180EFE03000000000000000046
:104BF0000000000000000000000000000000FE3F78
:104C00001830182018601840180018081808180CD8
:104C1000F80F180C18081808180018001800184089
:104C2000184018201830FE3F00000000000000006F
:104C30000000000000000000000000000000FE7FF7
:104C40001870184018C0188018001810181018187C
:104C5000F81F18181810181018001800180018005D
:104C60001800180018007E0000000000000000007E
:104C70000000000000000000000000000000C01361
:104C8000701C101018100C200C20040006000600E8
:104C900006000600060006FC063006300C300C301C
:104CA000183018303008C007000000000000000075
:104CB00000000000000000000000000000003F7E37
:104CC0000C180C180C180C180C180C180C180C18C4
:104CD0000C18FC1F0C180C180C180C180C180C18BD
:104CE0000C180C180C183F7E00000000000000009B
:104CF0000000000000000000000000000000F81F9D
:104D0000800180018001800180018001800180019B
:104D1000800180018001800180018001800180018B
:104D2000800180018001F81F0000000000000000E9
:104D30000000000000000000000000000000E07F14
:104D40000006000600060006000600060006000633
:104D50000006000600060006000600060006000623
:104D6000000600060006000600060E060E038E0171
:104D7000FC000000000000000000000000007E7C3D
:104D80001818180818041806180218019801980134
:104D9000D801B803380318071806180E180C181C89
:104DA0001818183018307EFC0000000000000000C9
:104DB00000000000000000000000000000007E0075
:104DC0001800180018001800180018001800180023
:104DD00018001800180018001800180018001840D3
:104DE000184018201830FE3F0000000000000000AE
:104DF00000000000000000000000000000001FF89C
:104E00001C381C381C381C3C3434343434343436AC
:104E100074326432643264326431C431C431C431B6
:104E2000C430C43084309FFC00000000000000004B
:104E300000000000000000000000000000001F7CD7
:104E40001C103C103410341074106410E410C410A2
:104E5000C41184118413041304170416041E041CC3
:104E6000041C041C04181F180000000000000000AF
:104E70000000000000000000000000000000C0036F
:104E8000300C181808100C300C30066006600660F4
:104E90000660066006600660066006600C200C3046
:104EA00008101818300CC0030000000000000000BB
:104EB0000000000000000000000000000000FE0FE5
:104EC00018181830186018601860186018601830CA
:104ED0001818F80F1800180018001800180018000B
:104EE0001800180018007E000000000000000000FC
:104EF0000000000000000000000000000000C003EF
:104F0000300C18180C100C300C200660066006607F
:104F1000066006600660066006600660E4612C3389
:104F20001C321816300EC007004C007C0038000000
:104F30000000000000000000000000000000FE076C
:104F4000181C183818301830183018301818180C69
:104F5000F80798031803180718061806180E180CF7
:104F6000180C181C18187E780000000000000000C3
:104F70000000000000000000000000000000E0272A
:104F8000303818300C200C200C000C001800780071
:104F9000E003800F001E00380070006004600460B1
:104FA000086018303818C80F00000000000000002A
:104FB0000000000000000000000000000000FC3FB6
:104FC0008C218461824182418001800180018001C5
:104FD00080018001800180018001800180018001C9
:104FE000800180018001E007000000000000000057
:104FF00000000000000000000000000000003F7CF6
:105000000C100C100C100C100C100C100C100C10C0
:105010000C100C100C100C100C100C100C100C10B0
:105020000C1008083804E003000000000000000035
:1050300000000000000000000000000000003EF83A
:105040001820182018203010301030103010600850
:1050500060086008E00CC004C004C0048003800342
:105060008003800300010001000000000000000038
:105070000000000000000000000000000000DFF35E
:105080008661862186218C210C218C238C138C1324
:105090008C134C1358125816580E380E380E380E02
:1050A000300C100410041004000000000000000088
:1050B00000000000000000000000000000007E3E34
:1050C000180838083004300470026002E001C001A2
:1050D000C001800180034003400720062006100C19
:1050E000100C081808183E7C0000000000000000AA
:1050F00000000000000000000000000000007E7CB6
:105100001C10181018083008300C7004600460027D
:10511000C002C002C00180018001800180018001C5
:10512000800180018001E007000000000000000015
:105130000000000000000000000000000000F83F38
:1051400018180818040C040E00060007000380035A
:105150008001C001C000E000600070003000382015
:1051600018201C100C18FE1F00000000000000009A
:105170000000000000000000C03F40004000400070
:10518000400040004000400040004000400040001F
:10519000400040004000400040004000400040000F
:1051A000400040004000400040004000C03F000080
:1051B00000000000000000000000000008001800CF
:1051C0001800100030002000600060004000C000A7
:1051D000800080018001000100030002000600063B
:1051E0000004000C00080018001800100030002017
:1051F0000000000000000000FC03000200020002AA
:10520000000200020002000200020002000200028E
:10521000000200020002000200020002000200027E
:10522000000200020002000200020002FC03000073
:1052300000000000000000008007C00620081010D9
:10524000000000000000000000000000000000005E
:10525000000000000000000000000000000000004E
:10526000000000000000000000000000000000003E
:10527000000000000000000000000000000000002E
:10528000000000000000000000000000000000001E
:10529000000000000000000000000000000000000E
:1052A00000000000000000000000000000000000FE
:1052B000FFFF0000000000007800C00000010000B7
:1052C00000000000000000000000000000000000DE
:1052D00000000000000000000000000000000000CE
:1052E00000000000000000000000000000000000BE
:1052F00000000000000000000000000000000000AE
:10530000000000000000000000000000F00318068C
:105310000C0C0C0C000C800F700C1C0C0C0C060CF4
:10532000060C064C0C4FF83800000000000000008E
:1053300000000000000000000000000010001E003F
:10534000180018001800180018001800180FD818B6
:10535000383038601860186018601860186018607D
:10536000182038307818C80700000000000000003E
:10537000000000000000000000000000000000002D
:10538000000000000000000000000000C007700CDA
:10539000181818180C180C000C000C000C000C202D
:1053A000182018103008C00700000000000000009E
:1053B0000000000000000000000000000010001EBF
:1053C000001800180018001800180018E01B301C06
:1053D000181818180C180C180C180C180C180C1895
:1053E0000818181C307AE0090000000000000000D6
:1053F00000000000000000000000000000000000AD
:10540000000000000000000000000000C007300C99
:10541000181808100C300C30FC3F0C000C000C006D
:10542000182018107018C0070000000000000000CD
:105430000000000000000000000000000000003E2E
:1054400080C380C0C0C0C000C000C000FC1FC0003E
:10545000C000C000C000C000C000C000C000C0004C
:10546000C000C000C000F80F0000000000000000F5
:10547000000000000000000000000000000000002C
:10548000000000000000000000000000C077306C49
:1054900010181818181818181018300CF0071800E1
:1054A0001800F00FF03F08700C600C600C6038388A
:1054B000E00F0000000000000000000010001E00CF
:1054C000180018001800180018001800980FD818B5
:1054D000383018301830183018301830183018306C
:1054E0001830183018307EFC00000000000000006A
:1054F0000000000000000000000000000000800329
:10550000800380030000000000000001F80180011A
:105510008001800180018001800180018001800183
:10552000800180018001F81F0000000000000000E1
:105530000000000000000000000000000000003833
:10554000003800380000000000000010801F001824
:10555000001800180018001800180018001800188B
:10556000001800180018001800180018180C180669
:10557000F0030000000000000000000010001E000A
:10558000180018001800180018001800183E180C11
:105590001806180318019801D801380318071806CF
:1055A000180C181C18187E7C000000000000000079
:1055B0000000000000000000000000000001F801F1
:1055C00080018001800180018001800180018001D3
:1055D00080018001800180018001800180018001C3
:1055E000800180018001F81F000000000000000021
:1055F00000000000000000000000000000000000AB
:10560000000000000000000000000800EE1C9C33B9
:105610008C318C318C318C318C318C318C318C31A2
:105620008C318C318C31DE7B0000000000000000EA
:10563000000000000000000000000000000000006A
:105640000000000000000000000010001E0FD8182D
:1056500038301830183018301830183018301830EA
:105660001830183018307EFC0000000000000000E8
:10567000000000000000000000000000000000002A
:10568000000000000000000000000000C007701CC7
:10569000103018300C600C600C600C600C600C60FA
:1056A000183018303018C00700000000000000005B
:1056B00000000000000000000000000000000000EA
:1056C0000000000000000000000010009E0F5818AD
:1056D000383018201860186018601860186018605A
:1056E000183038307818980718001800180018007B
:1056F0007E0000000000000000000000000000002C
:10570000000000000000000000000000C023303C4A
:10571000183818300C300C300C300C300C300C3089
:1057200008301838303CE0330030003000300030B2
:1057300000FC00000000000000000000000000006D
:105740000000000000000000000060007E3C606679
:105750006061E000E00060006000600060006000E8
:10576000600060006000FE07000000000000000014
:105770000000000000000000000000000000000029
:10578000000000000000000000000000E0273038AA
:105790001830182018007000E003800F001C04303F
:1057A00004300C301C18EC0F00000000000000005A
:1057B00000000000000000000000000000000000E9
:1057C0000000800080008000C000E000FC1FC000DE
:1057D000C000C000C000C000C000C000C000C000C9
:1057E000C020C0208011000F000000000000000059
:1057F00000000000000000000000000000000000A9
:105800000000000000000000000010201E3C1830C6
:105810001830183018301830183018301830183048
:105820001830183830F4E0130000000000000000C9
:105830000000000000000000000000000000000068
:105840000000000000000000000000007E3C18186E
:105850001808380830043004700260026002E00169
:10586000C001C001C0008000000000000000000076
:105870000000000000000000000000000000000028
:10588000000000000000000000000000DFF78E6351
:105890000C238C238C239813981358165816700ECB
:1058A000700E700E200420040000000000000000B4
:1058B00000000000000000000000000000000000E8
:1058C000000000000000000000000000FC3E700826
:1058D0007004E004C002C00180038003400760063A
:1058E000200C100C18183E7E000000000000000084
:1058F00000000000000000000000000000000000A8
:105900000000000000000000000000007E7C18186D
:10591000180830083008300460046004C002C00277
:10592000C0028001800180018000800080004C0066
:105930003C0000000000000000000000000000002B
:10594000000000000000000000000000FC1F0C0C24
:10595000040E0406000380038001C000E0007020F4
:10596000302038301C18FC1F000000000000000030
:1059700000000000000000000030000800040004E7
:1059800000040004000400040004000400040004F7
:10599000000280010002000400040004000400046E
:1059A00000040004000400040004000400080030A7
:1059B00000000001000100010001000100010001E0
:1059C00000010001000100010001000100010001CF
:1059D00000010001000100010001000100010001BF
:1059E00000010001000100010001000100010001AF
:1059F00000010000000000000C001000200020004A
:105A00002000200020002000200020002000200096
:105A100040008001400020002000200020002000E5
:105A200020002000200020002000200010000C009A
:105A3000000000003800C400864002610022001C03
:105A40000000000000000000000000000000000056
:105A50000000000000000000000000000000000046
:105A60000000000000000000000000000000000036
:105A700000000000312E42617369635F54657374E6
:105A80002020202020000000736572766F5F6F6B0E
:105A90005F3100006B645F63000000006B705F6348
:105AA000000000006B645F75000000006B705F75A4
:105AB00000000000736572766F5F6F6B5F320000ED
:105AC0006B645F72000000006B705F72000000008A
:105AD000736572766F5F636972636C655F70776D13
